:020000040800F2
:10000000C0190020311400088D1400088D14000858
:100010008D1400088D1400088D14000800000000E5
:100020000000000000000000000000008D14000827
:100030008D140008000000008D1400088D140008C5
:100040008D1400088D1400088D1400088D1400080C
:100050008D1400088D1400088D1400088D140008FC
:100060008D1400088D1400088D1400088D140008EC
:100070008D1400088D1400088D1400088D140008DC
:100080008D1400088D1400088D1400088D140008CC
:100090008D1400088D1400088D1400088D140008BC
:1000A0008D1400088D1400088D1400088D140008AC
:1000B0008D1400088D1400088D1400088D1400089C
:1000C0008D1400088D1400088D1400088D1400088C
:1000D0008D1400088D1400088D1400088D1400087C
:1000E0008D1400088D1400083D2900088D140008A7
:1000F0008D1400088D1400088D1400088D1400085C
:100100008D1400088D1400088D1400088D1400084B
:100110008D1400088D1400088D1400088D1400083B
:100120008D1400088D1400088D1400088D1400082B
:100130008D1400088D1400088D1400088D1400081B
:100140008D1400088D1400088D1400084D29000836
:100150008D1400088D1400088D1400088D140008FB
:100160008D1400088D1400088D1400088D140008EB
:100170008D1400088D1400088D1400088D140008DB
:100180008D1400088D14000880B485B000AF78602D
:100190000023FB607B68DB684FF0FF325A607B68AE
:1001A000DB686FF080425A61FB7B43F08003FB7396
:1001B0007B7B43F008037B737B68DB68FA689A619A
:1001C00000BF1437BD4680BC704700BF80B586B005
:1001D00000AF78600023FB7400237B610023FB6089
:1001E000032002F077FB7B68DB681B69FB607B699F
:1001F00001337B617B69184A934201D9002326E0D1
:10020000FB68C3F3C073DBB2002BE9D000237B6132
:10021000FB6843F00103FB607B68DB68FA681A61E6
:100220007B68DB681B69FB607B6901337B617B69F1
:10023000094A934206D8FB68C3F30003DBB2012BE3
:10024000EED000E000BF032002F044FBFB7C184628
:100250001837BD4680BD00BF400D030080B489B093
:1002600000AFF860B96011461A460B46FB711346A1
:10027000BB800023FB76FB68DB78002B22D10023B8
:100280007B610023FB61BB880333002B00DA03335F
:100290009B107B61FB79FA6832339B0013449B68A7
:1002A0003B610023FB6109E0BB681A683B691A6087
:1002B000FB690133FB61BB680433BB60FA697B698E
:1002C0009A42F1D3FB7E18462437BD4680BC704766
:1002D00080B489B000AFF860B9601346FB8000239A
:1002E000FB61FB880333002B00DA03339B10BB61F7
:1002F000FB68D3F8D0307B610023FB6109E07B69A8
:100300001A68BB681A60FB690133FB61BB68043380
:10031000BB60FA69BB699A42F1D3BB6818462437BF
:10032000BD4680BC704700BF80B487B000AF786026
:100330000B46FB7000233B610023FB737B680022AC
:10034000DA707B6801229A707B6840229A80FB7881
:10035000012B13D14FF0A0433B617B680122DA727D
:100360007B6808221A707B6804225A707B684FF4FD
:10037000A072DA807B6802221A7211E0FB78002BEF
:100380000ED1454B3B617B680022DA727B680C2200
:100390001A707B6806225A707B684FF4A062DA807C
:1003A0003A697B68DA603B6903F500631A467B684B
:1003B0001A6100237B611CE07B695A013B6913448D
:1003C00003F5106319467A687B6904339B00134474
:1003D00099607B695A013B69134403F53063194600
:1003E0007A687B6914339B00134459607B6901333D
:1003F0007B617B685B781A467B699A42DCD83B69F3
:1004000003F580631A467B685A613B6903F588638C
:100410001A467B68C3F8CC2000237B610FE07B6920
:100420005A013B69134403F5A06319467A687B6956
:1004300022339B00134499607B6901337B617B68A5
:100440001B781A467B699A42E9D800237B610FE04A
:100450007B691A033B69134403F5805319467A6894
:100460007B6932339B00134499607B6901337B6164
:100470007B681B781A467B699A42E9D83B6903F589
:1004800060631A467B68C3F80C21FB7B18461C3757
:10049000BD4680BC704700BF0000044080B586B0F8
:1004A00000AF78600023FB7500233B610023FB60F5
:1004B0000023BB607B681B7A012B42D17B68DB6821
:1004C0009B6BFB60BB7B6FF30003BB737B685B7A4A
:1004D000002B03D0BB7B43F01003BB737B68DB684E
:1004E000FA689A6300233B617B68DB68DB683B61E9
:1004F0003B7C6FF386133B74BB7C6FF38613BB743A
:10050000BB7C6FF34103BB74BB7C6FF3C303BB7451
:100510007B68DB683A69DA607868FFF757FE7B68CA
:10052000DB78012B3DD13B7A052262F344033B7219
:100530003B7A43F020033B727B68DB68BA689A60C1
:100540002FE07B68DB68DB683B613B7C43F040036A
:100550003B747B68DB683A69DA607868FFF736FEDF
:100560000023FB60BB7B43F00103BB73BB7B43F009
:100570000403BB73BB7B43F00803BB73BB7B43F03B
:100580002003BB737B685B7A002B03D0BB7B43F0FB
:100590001003BB737B68DB68FA689A63142002F06F
:1005A000BDF97B68DB78012B10D17B68DB689B6829
:1005B000BB603B7A052262F344033B723B7A43F013
:1005C00020033B727B68DB68BA689A60FB7D184643
:1005D0001837BD4680BD00BF80B485B000AF7860DD
:1005E0000023FB730023BB603B7A43F001033B72A3
:1005F0007B68DB687A68D2689168BA680A439A6057
:10060000FB7B18461437BD4680BC704780B485B06C
:1006100000AF78600023FB730023BB603B7A43F09C
:1006200001033B727B68DB687A68D2689168BA68BC
:10063000D2430A409A60FB7B18461437BD4680BC03
:10064000704700BF80B586B000AF78603960002386
:10065000FB7400237B610023FB60FB6843F02003F5
:10066000FB603B68DBB203F01F03DAB2FB6862F3A6
:100670008A13FB607B68DB68FA681A617B68DB6859
:100680001B69FB607B6901337B617B69094A93428B
:1006900006D8FB68C3F34013DBB2012BEED000E0B9
:1006A00000BF032002F016F9FB7C18461837BD4640
:1006B00080BD00BF400D030080B586B000AF7860FC
:1006C0000023FB7400237B610023FB60FB6843F085
:1006D0001003FB607B68DB68FA681A617B68DB6883
:1006E0001B69FB607B6901337B617B69094A93422B
:1006F00006D8FB68C3F30013DBB2012BEED000E099
:1007000000BF032002F0E6F8FB7C18461837BD4610
:1007100080BD00BF400D030080B584B000AF78609D
:100720000B46FB700023FB737B68DB68DB68BB60F8
:10073000FB7A6FF34513FB72FB7A6FF38613FB7240
:10074000FB78012B04D1FB7A43F02003FB7206E017
:10075000FB78002B03D1FB7A43F04003FB727B68EC
:10076000DB68BA68DA60322002F0D8F8FB7B184602
:100770001037BD4680BD00BF80B483B000AF786045
:100780007B68DB685B6903F0010318460C37BD46E4
:1007900080BC704780B582B000AF78607868FFF7A2
:1007A000EBFF0346012B14BF01230023DBB21846E5
:1007B0000837BD4680BD00BF80B485B000AF78600B
:1007C0000023FB607B68DB685B69FB607B68DB6840
:1007D0009B69FA681340FB60FB6818461437BD46F6
:1007E00080BC704780B485B000AF78600B46FB706A
:1007F0007B681B691B68FB60FB7803F00303DAB2BC
:100800003B7B62F301033B737B681B69FA681A60E8
:1008100000BF1437BD4680BC704700BF80B58CB0A8
:1008200000AF7860002387F82B3000237B62002321
:100830003B620023FB610023BB6100237B617B687B
:10084000D3F80C3100221A607B681B691B683B627D
:1008500097F821306FF3C40387F821307B681B6958
:100860003A6A1A607B68DB7A012B33D103217868FE
:10087000FFF7B8FF7B68DB6880225A622023FB8386
:100880008023BB837B68DB68FA699A62BA8BFB8B37
:1008900013449BB23B8380237B837B68DB68BA690C
:1008A000C3F804213A8B7B8B13449BB23B832023F8
:1008B0007B837B68DB68BA69C3F808213A8B7B8B42
:1008C00013449BB23B8300237B837B68DB68BA695C
:1008D000C3F80C2110217868FFF7B4FE7868FFF7A1
:1008E000EBFE7B681B6900221A617B681B69002292
:1008F0005A617B681B694FF0FF329A617B681B6904
:100900000022DA610023FB623AE07A68FB6A043372
:100910009B0013449B681B687B6297F8273023F089
:100920007F03DBB2002B0ED000237B6297F82730C9
:1009300043F0400387F8273097F8273043F0080347
:1009400087F8273001E000237B627A68FB6A043372
:100950009B0013449B687A6A1A607A68FB6A0433C6
:100960009B0013449B6800221A617A68FB6A043377
:100970009B0013449B68FF229A60FB6A0133FB6271
:100980007B685B781A46FB6A9A42BED80023FB62FA
:1009900035E07A68FB6A14339B0013445B681B687C
:1009A000FB60FB7B23F07F03DBB2002B0AD000232C
:1009B000FB60FB7B43F04003FB73FB7B43F00803CE
:1009C000FB7301E00023FB607A68FB6A14339B0031
:1009D00013445B68FA681A607A68FB6A14339B00F8
:1009E00013445B6800221A617A68FB6A14339B0027
:1009F00013445B68FF229A60FB6A0133FB627B68E9
:100A00005B781A46FB6A9A42C3D800237B617B7DE0
:100A100043F001037B757B681B697A681269116971
:100A20007A69D24311407A690A431A617B68DB789C
:100A3000012B1BD100233B613B7C43F001033B7442
:100A40003B7C43F002033B743B8A402262F38A03FF
:100A50003B82BB7C43F00103BB747B8A402262F380
:100A600049037B827B681B693A691A63786800F0E6
:100A700007F897F82B3018463037BD4680BD00BFC9
:100A800080B584B000AF78600023FB730023BB60A7
:100A90007B68DB6800229A617B68DB686FF08042CC
:100AA0005A617868FFF770FB7B68DB78002B03D115
:100AB0003B7A43F010033B727B7A43F008037B726E
:100AC0007B7A43F010037B727B7A43F020037B72C6
:100AD000BB7A43F00403BB72BB7A43F00803BB72DA
:100AE0003B7A43F008033B72BB7A43F01003BB72BE
:100AF000BB7A43F02003BB727B68DB687A68D268FC
:100B00009169BA68D2431140BA680A439A61FB7B83
:100B100018461037BD4680BD80B485B000AF786000
:100B20000023FB737B681B699B68BB603B7AC3F344
:100B30004103DBB2022B09D0032B04D0012B02D0DE
:100B40000323FB7305E00223FB7302E00123FB7325
:100B500000BFFB7B18461437BD4680BC704700BF02
:100B600080B487B000AF78600023FB750023BB60C2
:100B70007B681B699B683B617B689B691B68FB60AA
:100B80003B7CC3F34103DBB2022B04D0BB896FF380
:100B90000A03BB8105E0BB89032262F30A03BB8120
:100BA00000BF7B689B69FA681A607B7A43F0010397
:100BB0007B727B681B697A6812695168BA68D24394
:100BC0001140BA680A435A60FB7D18461C37BD467F
:100BD00080BC704780B487B000AF78603960002374
:100BE000FB740023FB600023BB603B685B78012B38
:100BF0000FD13B681B787A6804339B0013449B68D1
:100C00007B613B681B781A46012393409BB23B8172
:100C10000EE03B681B787A6814339B0013445B68D2
:100C20007B613B681B781A46012393409BB27B8112
:100C30007B691B68FB607B7B23F07F03DBB2002BAF
:100C400027D13B689B689BB2C3F30A039AB2BB8966
:100C500062F30A03BB813B68DB7803F00303DAB27B
:100C6000BB7B62F38303BB733B68DB88DBB203F0BF
:100C70000F03DAB2FB8962F38913FB81FB7B43F03C
:100C80001003FB737B7B43F080037B73FA687B6903
:100C90001A607B681B697A681269D169BA680A436D
:100CA000DA61FB7C18461C37BD4680BC704700BF2C
:100CB00080B487B000AF786039600023FB740023F4
:100CC000FB600023BB603B685B78012B0FD13B6866
:100CD0001B787A6804339B0013449B687B613B68F4
:100CE0001B781A46012393409BB23B810EE03B6880
:100CF0001B787A6814339B0013445B687B613B6804
:100D00001B781A46012393409BB27B817B7B6FF358
:100D1000C7137B73FA687B691A607B681B697A6802
:100D20001269D169BA68D2430A40DA61FB7C18467D
:100D30001C37BD4680BC704780B588B000AF786076
:100D400039600023FB770023BB6100237B61002314
:100D50003B613B685B78012B40F0AB803B681B78C4
:100D60007A6804339B0013449B681B687B613B6873
:100D70001B787A6804339B0013449B681B693B61B2
:100D80003B685B69002B09D13B696FF312033B6140
:100D90007B8A012262F3CC037B8222E03B685B69A1
:100DA000C3F312023B6962F312033B613B685A6969
:100DB0003B689B6813445A1E3B689B68B2FBF3F385
:100DC0009BB2C3F309039AB27B8A62F3CC037B82A2
:100DD0003B68DB78012B04D1FB7C012262F34613D4
:100DE000FB743B681B787A6804339B0013449B6850
:100DF0003A691A617B68DB78012B0AD13B681B7862
:100E00007A6804339B0013449B683A6812695A61FC
:100E100015E03B68DB78012B11D03B685B69002B48
:100E20000DD03B681B781A4601239340BB617B6859
:100E30001B697A681269516BBA690A435A633B6845
:100E4000DB78012B14D17B681B699B68FB60FB6816
:100E5000C3F30D239BB203F00103002B04D1FB7DF0
:100E600043F02003FB7503E0FB7D43F01003FB75AB
:100E7000FB7D43F00403FB75FB7D43F08003FB75B2
:100E80003B681B787A6804339B0013449B687A693B
:100E90001A603B68DB78012B40F089803B68D96899
:100EA0003B681A783B685B699BB27868FFF7D6F9B4
:100EB0007DE03B681B787A6814339B0013445B68C1
:100EC0001B687B613B681B787A6814339B00134472
:100ED0005B681B693B613B685B69002B0DD13B681C
:100EE0009B68C3F312023B6962F312033B617B8A86
:100EF000012262F3CC037B8220E03B685A693B68A5
:100F00009B6813445A1E3B689B68B2FBF3F39BB289
:100F1000C3F309039AB27B8A62F3CC037B827B8A98
:100F2000C3F3C9039BB21A463B689B6803FB02F3F9
:100F3000C3F312023B6962F312033B613B681B7807
:100F40007A6814339B0013445B683A691A617B68C2
:100F5000DB78012B09D13B681B787A6814339B003E
:100F600013445B683A6812695A613B68DB78012B6D
:100F70000CD13B685B79002B04D0FB7D43F0200350
:100F8000FB7503E0FB7D43F01003FB75FB7D43F035
:100F90000403FB75FB7D43F08003FB753B681B7806
:100FA0007A6814339B0013445B687A691A60FB7F8C
:100FB00018462037BD4680BD80B489B000AF786048
:100FC00039600023FB770023BB6100233B610023D2
:100FD000BB603B685B78012B70D17B689B697B6150
:100FE0007B691B683B617B691B69BB603B685B6914
:100FF000002B09D13B7A6FF306033B72BB7A0122C7
:1010000062F3C403BB7223E03B685A693B689B6888
:101010009A420ED93B689A683B685A613B689B6864
:10102000DBB203F07F03DAB23B7A62F306033B7272
:1010300009E03B685B69DBB203F07F03DAB23B7A1D
:1010400062F306033B72BB7A012262F3C403BB72F4
:10105000BA687B691A617B68DB78012B09D13B6830
:101060001B787A6804339B0013449B683A681269C2
:101070005A61FB7C43F00403FB74FB7C43F0800368
:10108000FB743A697B691A607B68DB78002B76D148
:101090003B685B69002B72D03B681B781A460123C2
:1010A00093401A46BB691343BB617B681B697A682E
:1010B0001269516BBA690A435A6360E03B681B7856
:1010C0007A6814339B0013445B681B683B613B6880
:1010D0001B787A6814339B0013445B681B69BB6000
:1010E0003B685B69002B0FD13B689B68DBB203F068
:1010F0007F03DAB23B7A62F306033B72BB7A0122CA
:1011000062F3C403BB7212E03B689A683B685A61A1
:101110003B689B68DBB203F07F03DAB23B7A62F391
:1011200006033B72BB7A012262F3C403BB723B68C5
:101130001B787A6814339B0013445B68BA681A61A1
:101140007B68DB78012B09D13B681B787A68143304
:101150009B0013445B683A6812695A61FB7C43F058
:101160000403FB74FB7C43F08003FB743B681B7837
:101170007A6814339B0013445B683A691A60FB7FFA
:1011800018462437BD4680BC704700BF80B487B086
:1011900000AF786039600023FB750023FB603B687B
:1011A0005B78012B1CD13B681B787A6804339B0069
:1011B00013449B683B613B691B68FB60FB7B23F02E
:1011C0007F03DBB2002B03D0FB7B43F04003FB73B8
:1011D000BB7B43F02003BB73FA683B691A6011E0E4
:1011E0003B681B787A6814339B0013445B683B614F
:1011F0003B691B68FB60BB7B43F02003BB73FA6851
:101200003B691A60FB7D18461C37BD4680BC7047A1
:1012100080B487B000AF786039600023FB7400238E
:10122000FB603B685B78012B08D13B681B787A68D0
:1012300004339B0013449B687B6107E03B681B7889
:101240007A6814339B0013445B687B617B691B687D
:10125000FB60BB7B6FF34513BB733B68DB78032BF1
:1012600003D03B68DB78022B03D1FB7B43F01003F8
:10127000FB73FA687B691A60FB7C18461C37BD4615
:1012800080BC704780B485B000AF78607B681B6914
:101290009B69FB607B681B69DB69FA681340FB6034
:1012A000FB681B0C18461437BD4680BC704700BF56
:1012B00080B485B000AF78600B46FB70FB787A682D
:1012C00014339B0013445B689B68FB607B681B695D
:1012D0005B69FA681340FB60FB6818461437BD462B
:1012E00080BC704780B485B000AF78607B681B69B4
:1012F0009B69FB607B681B69DB69FA681340FB60D4
:10130000FB689BB218461437BD4680BC704700BFCF
:1013100080B487B000AF786000233B61FB7C43F072
:10132000C003FB74BB7C012262F3C403BB743B7C2F
:10133000182262F306033B747B685B6D3A691A619D
:101340007B68DB78012B16D10023FB607B685B6D2B
:101350007A6802F2CC525A617B685B6D1B68FB6055
:10136000FB7B43F08003FB734FF08023FB607B68C3
:101370005B6DFA681A6000BF1C37BD4680BC7047C1
:1013800080B400AF034B05221A7000BFBD4680BC7D
:10139000704700BF0000002080B483B000AF034658
:1013A000FB71044B05221A7000BF0C37BD4680BC90
:1013B000704700BF0000002080B400AF034B06223E
:1013C0001A7000BFBD4680BC704700BF00000020FF
:1013D00080B400AF034B05221A7000BFBD4680BC2D
:1013E000704700BF0000002080B400AF034B05220F
:1013F0001A7000BFBD4680BC704700BF00000020CF
:1014000080B400AF034B05221A7000BFBD4680BCFC
:10141000704700BF0000002080B400AF034B0522DE
:101420001A7000BFBD4680BC704700BF000000209E
:1014300080B582B000AF104B7B60104B3B6007E083
:101440003B681A1D3A607A68111D796012681A604B
:101450003B680B4A9342F3D30A480B494FF0000212
:101460008842B8BF40F8042BFADB00F08DFB00BFC8
:101470000837BD4680BD00BF2A4900080000002093
:101480002001002020010020BC11002080B400AF0A
:10149000FEE700BF80B584B000AFF8607A603B60C3
:1014A0000B46FB72F86801F0A3F9F86800F01EF82B
:1014B000FB683A68C3F8E425FB68BA69C3F8E82515
:1014C000FB687A68C3F8EC25FB7A1946F86802F0E5
:1014D0009FFEFB68D3F8E8351B689847F86801F071
:1014E000DFF900BF1037BD4680BD00BF80B483B0B8
:1014F00000AF7860002318460C37BD4680BC7047AB
:1015000080B584B000AF786007F1080319467868A9
:1015100001F0FCFD3B7A03F01F03012B0AD0022BE4
:101520000FD0002B14D107F108031946786801F099
:1015300017FA16E007F108031946786801F060FA17
:101540000FE007F108031946786801F08DFA08E00A
:101550003B7A23F07F03DBB21946786802F0EEFF96
:1015600000BF002318461037BD4680BD80B584B04B
:1015700000AF78600B46FB70FB78002B44D17B6892
:1015800003F55D73FB607B6893F81131032B4ED13B
:10159000FB68DA69FB689B689A4220D9FB68DA69C4
:1015A000FB689B68D21AFB68DA617B68DB78012BE9
:1015B00006D1FB68DA68FB689B681A44FB68DA604E
:1015C000FB68D968FB689A68FB68DB69934228BFAF
:1015D00013469BB21A46786803F09EF827E07B68B2
:1015E000D3F8E4351B69002B0AD07B6893F81231DD
:1015F000032B05D17B68D3F8E4351B6978689847DD
:10160000786803F09DF812E07B68D3F8E4359B69B5
:10161000002B0CD07B6893F81231032B07D17B6829
:10162000D3F8E4359B69FA78114678689847002327
:1016300018461037BD4680BD80B584B000AF7860D5
:101640000B46FB70FB78002B6BD17B6803F58E7328
:10165000FB607B6893F81131022B55D1FB68DA6986
:10166000FB689B689A421BD9FB68DA69FB689B6838
:10167000D21AFB68DA617B68DB78012B06D1FB6844
:10168000DA68FB689B681A44FB68DA60FB68D96813
:10169000FB68DB699BB21A46786803F009F833E00F
:1016A000FB681B6AFA689268B3FBF2F102FB01F275
:1016B0009B1A002B14D1FB681A6AFB689B689A423C
:1016C0000ED3FB681A6AFB685B6A9A4208D2002252
:1016D0000021786802F0ECFFFB6800225A6213E0F8
:1016E0007B68D3F8E435DB68002B0AD07B6893F87D
:1016F0001231032B05D17B68D3F8E435DB687868B9
:101700009847786803F034F87B6893F81631012B1A
:101710001AD1786800F01EF87B68002283F8162141
:1017200012E07B68D3F8E4355B69002B0CD07B6852
:1017300093F81231032B07D17B68D3F8E4355B694A
:10174000FA78114678689847002318461037BD4646
:1017500080BD00BF80B483B000AF78607B681B6938
:10176000044A12685A60002318460C37BD4680BCF4
:10177000704700BF6801002080B582B000AF78607C
:10178000002340220021786802F0C6FD0023402299
:101790008021786802F0C0FD7B68012283F8122165
:1017A0007B68D3F8E8355B687A689278104698478A
:1017B000002318460837BD4680BD00BF80B582B003
:1017C00000AF78607B68D3F8E8351B6998477B6881
:1017D00093F813217B6883F812217B68032283F836
:1017E0001221002318460837BD4680BD80B582B05F
:1017F00000AF78607B6893F812217B6883F813212F
:101800007B68042283F812217B68D3F8E835DB6813
:101810009847002318460837BD4680BD80B582B082
:1018200000AF78607B68D3F8E435DB69002B05D026
:101830007B68D3F8E435DB6978689847002318465D
:101840000837BD4680BD00BF80B582B000AF78606C
:101850000B46FB707B68D3F8E4351B68FA781146B9
:10186000786898477B68D3F8E8359B6898470023E9
:1018700018460837BD4680BD80B582B000AF78609D
:101880000B46FB707B68D3F8E4355B68FA78114649
:1018900078689847002318460837BD4680BD00BFCA
:1018A00080B582B000AF78607B68D3F8E4351B6AFE
:1018B00078689847002318460837BD4680BD00BFAA
:1018C00080B582B000AF78607B68D3F8E4355B6A9E
:1018D00078689847002318460837BD4680BD00BF8A
:1018E00080B485B000AF78600023FB607B68404A1D
:1018F000934206D87B68B3F1006F02D30023FB60EC
:101900006FE07B683B4A934206D87B68384A934233
:1019100002D90823FB6064E07B68374A934206D80B
:101920007B68344A934202D91023FB6059E07B68FC
:10193000324A934206D87B682F4A934202D9182331
:10194000FB604EE07B682E4A934206D87B682B4AA8
:10195000934202D92023FB6043E07B68294A9342EB
:1019600006D87B68264A934202D92823FB6038E0D8
:101970007B68254A934206D87B68224A934202D963
:101980003023FB602DE07B68204A934206D87B68B9
:101990001D4A934202D93823FB6022E07B681C4A2F
:1019A000934206D87B68194A934202D94023FB60D0
:1019B00017E07B68174A934206D87B68144A934223
:1019C00002D94823FB600CE07B68134A934206D897
:1019D0007B68104A934202D95023FB6001E05823F0
:1019E000FB60FB6818461437BD4680BC704700BFDB
:1019F000FF3F0008FF7F0008FFBF0008FFFF00084F
:101A0000FFFF0108FFFF0308FFFF0508FFFF0708AE
:101A1000FFFF0908FFFF0B08FFFF0D08B0B59EB0E0
:101A200000AF00F023FCF32000F0D8FC4C48FFF797
:101A300057FF02464B4B1A604948FFF751FF0246D9
:101A4000494B1A60474B1B68484A13600EE0474BEE
:101A50001B680221184600F02DFC0346082B00D01D
:101A6000FEE7424B1B680833404A13603F4B1A683D
:101A70003D4B1B689A42EAD33D4B394A1A603D4BB5
:101A800007F154041D460FCD0FC495E80F0084E8FC
:101A90000F0000237B671CE0354B1A687B6F9B00AF
:101AA00007F178010B4453F8243C1946104600F026
:101AB00061FC0346082B05D12D4B1B6804332C4ACF
:101AC000136003E02C4B4FF400521A837B6F0133F9
:101AD0007B677B6F072BDFDD00F0DEFB244B204AAA
:101AE0001A60264B00221A60254B07F12C041D4674
:101AF0000FCD0FC40FCD0FC495E8030084E8030099
:101B000000237B6724E01A4B1B681A681D497B6F12
:101B100041F823201B4A7B6F52F823207B6F9B00E8
:101B200007F178010B4453F8243C9A4208D0134B38
:101B30001B680133114A13600F4B4FF400421A83A4
:101B40000B4B1B6804330A4A13607B6F01337B67BE
:101B50007B6F072BD7DD00BF7837BD46B0BD00BF18
:101B60000000010820010020240100202C01002099
:101B700028010020A0470008000C0240340100208A
:101B8000C04700086C010020B0B5AEB000AF00F057
:101B900087FD012000F0C8F800BF00F0D7F8034629
:101BA000002BFAD000F016FA02F0AAFA554B4FF4C7
:101BB00080421A83544B07F180041D460FCD0FC499
:101BC00095E80F0084E80F00504B07F17004186887
:101BD00059689A68DB680FC44D4A07F168031068BA
:101BE000516803C30023C7F8B43012E00023C7F8DC
:101BF000B03004E0D7F8B0300133C7F8B030D7F8D0
:101C0000B030B3F5487FF5DDD7F8B4300133C7F80D
:101C1000B430D7F8B4303F4A9342E7DDFFF7FEFE19
:101C2000384B4FF480521A833B4B07F128041D4672
:101C30000FCD0FC495E80F0084E80F00374BC7F8AD
:101C4000AC300023C7F8A43012E00023C7F8A0305E
:101C500004E0D7F8A0300133C7F8A030D7F8A0309F
:101C6000B3F5487FF5DDD7F8A4300133C7F8A430C9
:101C7000D7F8A430274A9342E7DD0821284800F02E
:101C8000D5F90023C7F8A83031E0D7F8AC301B688D
:101C90001A46D7F8A8309B0007F1B8010B4443F867
:101CA000B82CD7F8A8309B0007F1B802134453F8BA
:101CB000B83C1A46D7F8A8309B0007F1B8010B448E
:101CC00053F8903C9A4208D0164B1B680133154AD2
:101CD00013600C4B4FF400421A83D7F8AC30043336
:101CE000C7F8AC30D7F8A8300133C7F8A830D7F818
:101CF000A830072BC9DD034A024B5B6983F480538C
:101D000053619BE7000C024090480008B04800086F
:101D1000C0480008A0860100A0470008000008088D
:101D2000844800083401002080B483B000AF03462B
:101D3000FB71054B00221A70034AFB79137000BF38
:101D40000C37BD4680BC70470238024080B582B077
:101D500000AF00233B600023FB710023BB713120E7
:101D600000F076F80346BB713B6801333B603B688B
:101D7000B3F5A06F02D0BB79002BF0D0312000F07A
:101D800067F80346002B02D00123FB7101E000231A
:101D9000FB71FB7918460837BD4680BD80B483B01F
:101DA00000AF78600B46FB70FB78002B06D009492A
:101DB000084B1A6B7B6813430B6306E00549054B20
:101DC0001A6B7B68DB4313400B6300BF0C37BD46C7
:101DD00080BC70470038024080B483B000AF7860A8
:101DE0000B46FB70FB78002B06D00949084B5A6B59
:101DF0007B6813434B6306E00549054B5A6B7B68D0
:101E0000DB4313404B6300BF0C37BD4680BC7047BB
:101E10000038024080B483B000AF78600B46FB709E
:101E2000FB78002B06D00949084B5A6C7B6813439A
:101E30004B6406E00549054B5A6C7B68DB43134055
:101E40004B6400BF0C37BD4680BC70470038024071
:101E500080B487B000AF0346FB710023FB60002312
:101E60007B610023FB74FB795B09DBB2FB60FB68E1
:101E7000012B03D1124B1B687B6109E0FB68022B2D
:101E800003D10F4B1B6F7B6102E00D4B5B6F7B61DE
:101E9000FB7903F01F03FB607A69FB6822FA03F306
:101EA00003F00103002B02D00123FB7401E00023A7
:101EB000FB74FB7C18461C37BD4680BC704700BFD6
:101EC0000038024080B483B000AF03463960FB7134
:101ED0003B6812221A80034B18460C37BD4680BC63
:101EE000704700BF6C00002080B483B000AF034691
:101EF0003960FB713B6804221A80034B18460C378B
:101F0000BD4680BC704700BF8C00002080B582B009
:101F100000AF03463960FB713A680449044801F098
:101F200051F9024B18460837BD4680BD30080020E5
:101F3000C848000880B582B000AF03463960FB7125
:101F40003A680449044801F03DF9024B1846083745
:101F5000BD4680BD30080020EC48000880B582B046
:101F600000AF03463960FB713A680449044801F048
:101F700029F9024B18460837BD4680BD30080020BD
:101F80000049000880B582B000AF03463960FB719C
:101F90003A680449044801F015F9024B184608371D
:101FA000BD4680BD300800201049000880B582B0D1
:101FB00000AF03463960FB713A680449044801F0F8
:101FC00001F9024B18460837BD4680BD3008002095
:101FD0001C49000880B582B002AF0C4B00930C4B3B
:101FE0000C4A01210C48FFF755FA0C4B00221A60ED
:101FF0000B4B00221A600B4B00221A600A4B012285
:102000001A7000231846BD4680BD00BF04000020A2
:10201000F4000020500000203C020020B00100200D
:10202000B8010020B40100203801002080B582B042
:1020300000AF786039603968786800F0E7FA00230B
:1020400018460837BD4680BD80B483B000AF034654
:10205000FB71114B1B687F2B17D8104B1B687F2B14
:1020600002D90E4B00221A600C4B1B680C49FA79FE
:10207000CA540A4B1B680133084A1360064B1B689D
:102080000133054A1360002300E0022318460C3791
:10209000BD4680BC704700BFB4010020B0010020E5
:1020A000BC01002080B487B000AF786039600023A5
:1020B0007B6100233B610023FB6000237B6176E0B2
:1020C00001227B6902FA03F33B613B681A683B69B2
:1020D0001340FB60FA683B699A4265D17B681A68D5
:1020E0007B695B00032101FA03F3DB431A407B6841
:1020F0001A607B681A683B681B7919467B695B002C
:1021000001FA03F31A437B681A603B681B79012BC1
:1021100003D03B681B79022B2ED17B689A687B69C0
:102120005B00032101FA03F3DB431A407B689A60EA
:102130007B689A683B685B7919467B695B0001FAAA
:1021400003F31A437B689A607B685A687B699BB289
:10215000194601238B40DB431A407B685A607B6839
:102160005B683A68927911467A6992B201FA02F292
:1021700092B21A437B685A607B68DA687B699BB2CB
:102180005B00032101FA03F3DB431A407B68DA604A
:102190007B68DA683B68DB7919467B695B0001FA8A
:1021A00003F31A437B68DA607B6901337B617B69E7
:1021B0000F2B85D900BF1C37BD4680BC704700BFC0
:1021C00080B483B000AF78600B467B807A887B68F0
:1021D0005A6100BF0C37BD4680BC704780B485B0E3
:1021E00000AF78600B467B8013467B700023FB605A
:1021F0000023BB607A787B8803F007039B0002FA18
:1022000003F3FB607B88DB089BB218467B88DB0806
:102210009BB21A467B68083253F822207B8803F071
:1022200007039B000F2101FA03F3DB4302EA0301DA
:102230007B6800F1080243F822107B88DB089BB220
:102240001A467B68083253F82220FB681343BB60B0
:102250007B88DB089BB21A467B680832B96843F872
:10226000221000BF1437BD4680BC704780B400AF59
:10227000064B1B69002B05DA044B054A5A60034BD9
:10228000044A5A6000BFBD4680BC7047003C024013
:1022900023016745AB89EFCD80B400AF044A044BFE
:1022A0001B6943F00043136100BFBD4680BC70470B
:1022B000003C024080B584B000AF78600B46FB70F4
:1022C0000023FB600823FB72FB78002B02D1002364
:1022D000FB6010E0FB78012B03D14FF48073FB60AF
:1022E00009E0FB78022B03D14FF40073FB6002E09E
:1022F0004FF44073FB6000F0B3F80346FB72FB7AC7
:10230000082B2FD11A4A1A4B1B6923F4407313610F
:102310001749174B1A69FB6813430B61144A144B96
:102320001B6923F0F80313611149114B1A697B688B
:10233000134343F002030B610D4A0D4B1B6943F439
:102340008033136100F08CF80346FB72084A084B97
:102350001B6923F002031361054A054B1B6923F037
:10236000F8031361FB7A18461037BD4680BD00BFE5
:10237000003C024080B584B000AF7860396008232B
:10238000FB7300F06DF80346FB73FB7B082B1ED13B
:10239000114A114B1B6923F4407313610E4A0E4B13
:1023A0001B6943F4007313610B4A0B4B1B6943F029
:1023B000010313617B683A681A6000F051F8034624
:1023C000FB73054A044B1B6923F001031361FB7B7C
:1023D00018461037BD4680BD003C024080B483B033
:1023E00000AF7860034A7B68D36000BF0C37BD46FE
:1023F00080BC7047003C024080B483B000AF08232B
:10240000FB71164BDB6803F48033002B02D00123F1
:10241000FB711CE0114BDB6803F01003002B02D0B2
:102420000523FB7113E00D4BDB6803F0EF03002B7A
:1024300002D00623FB710AE0084BDB6803F00203BD
:10244000002B02D00723FB7101E00823FB71FB790D
:1024500018460C37BD4680BC704700BF003C0240A8
:1024600080B582B000AF0823FB71FFF7C5FF0346BC
:10247000FB7103E0FFF7C0FF0346FB71FB79DBB2A2
:10248000012BF7D0FB79DBB218460837BD4680BD7B
:1024900080B400AF00231846BD4680BC704700BF23
:1024A00080B400AF00231846BD4680BC704700BF13
:1024B00080B485B000AFF860B9607A60FB68232B08
:1024C00000F29B8001A252F823F000BFFB25000818
:1024D000FB250008FB250008FB250008FB2500085C
:1024E000FB250008FB250008FB250008FB2500084C
:1024F000FB250008FB250008FB250008FB2500083C
:10250000FB250008FB250008FB250008FB2500082B
:10251000FB250008FB250008FB250008FB2500081B
:10252000FB250008FB250008FB250008FB2500080B
:10253000FB250008FB250008FB250008FB250008FB
:10254000FB250008FB250008FB2500085D25000889
:10255000A7250008FB250008FB250008BB681B78A1
:102560001A46BB6801331B781B021A43BB6802334F
:102570001B781B041A43BB6803331B781B061343E9
:102580001A46214B1A60BB681A791F4B1A71BB6837
:102590005A791D4B5A71BB689A791B4B9A711A4B29
:1025A0000122DA712AE0184B1B68DAB2BB681A7094
:1025B000BB680133144A1268120AD2B21A70BB689F
:1025C0000233114A1268120CD2B21A70BB6803337C
:1025D0000D4A1268120ED2B21A70BB6804330A4A4E
:1025E00012791A70BB680533074A52791A70BB68B2
:1025F0000633054A92791A7000E000BF002318469E
:102600001437BD4680BC70479000002080B485B070
:1026100000AF786039600023FB6017E0104B1B6847
:102620007968FA680A4411780E4AD1540C4B1B6839
:1026300001330B4A13600A4B1B68B3F5006F02D3DA
:10264000074B00221A60FB680133FB60FA683B68A5
:102650009A42E3D3002318461437BD4680BC704726
:1026600050010020BC09002080B584B000AF786024
:1026700039600023FB6009E07A68FB6813441B782B
:102680001846FFF7E1FCFB680133FB60FA683B6822
:102690009A42F1D3002318461037BD4680BD00BFD3
:1026A00080B500AF124A124B1B6843F00103136060
:1026B0000F4B00229A600E4A0D4B1B6823F0847367
:1026C00023F4803313600A4B0A4A5A60084A084BC5
:1026D0001B6823F480231360054B0022DA6000F0AE
:1026E0000DF8054B4FF000629A6000BF80BD00BF3F
:1026F000003802401030002400ED00E080B483B0C8
:1027000000AF00237B6000233B60354A344B1B68DD
:1027100043F480331360324B1B6803F400333B6097
:102720007B6801337B603B68002B03D17B68B3F58A
:10273000A06FF0D12A4B1B6803F40033002B02D0AA
:1027400001233B6001E000233B603B68012B42D149
:10275000234A234B1B6C43F080531364214A214BC3
:102760001B6843F4804313601D4A1D4B9B689360B4
:102770001B4A1B4B9B6843F400439360184A184B59
:102780009B6843F4A0539360154B174A5A60144A50
:10279000134B1B6843F08073136000BF104B1B6822
:1027A00003F00073002BF9D0104B40F205621A6061
:1027B0000B4A0B4B9B6823F003039360084A084BBA
:1027C0009B6843F00203936000BF054B9B6803F0D6
:1027D0000C03082BF9D100BF0C37BD4680BC7047F5
:1027E000003802400070004008544007003C02409E
:1027F00080B584B000AF786001210120FFF7CEFAE8
:102800004FF4C053BB6003237B7302233B7300234D
:10281000BB730023FB7307F1080319461F48FFF73A
:1028200041FC0A220B211D48FFF7D8FC0A220C218B
:102830001A48FFF7D3FC4FF40073BB6003237B738C
:1028400000233B730123BB730023FB7307F10803D1
:1028500019461248FFF726FC4FF48063BB60012342
:10286000BB730123FB7303237B7307F10803194632
:102870000A48FFF717FC0A220A210848FFF7AEFCB6
:1028800001214FF48040FFF7C5FA01218020FFF7B6
:10289000A3FA00BF1037BD4680BD00BF0000024054
:1028A00080B584B000AF78604FF4C06001F03EFCAA
:1028B00043233B7301237B730323BB730123FB730C
:1028C00007F10C03184601F043FC00BF1037BD466A
:1028D00080BD00BF80B485B000AF78600023FB608E
:1028E0007A6813461B019B1ADB001A460A4BA3FBAE
:1028F0000213D21A520813449B08BB60FB680133D1
:10290000FB60FA68BB689A4200D8F7E700BF14374B
:10291000BD4680BC704700BF2549922480B582B077
:1029200000AF78607B684FF47A7202FB03F31846BD
:10293000FFF7D0FF00BF0837BD4680BD80B500AFB0
:102940004FF4802001F0E4FB00BF80BD80B500AFF4
:10295000024800F093FC00BF80BD00BF3C02002095
:1029600080B584B000AF786039600023FB733B68AA
:102970005B78092B39D801A252F823F0CD29000841
:10298000E1290008EB290008D7290008EB290008F5
:10299000AF290008A5290008EB290008C329000871
:1029A000B92900083968786800F036F922E03968FA
:1029B000786800F005FA1DE03968786800F03EFAA2
:1029C00018E03968786800F0B3FA13E0396878687D
:1029D00000F0DEFA0EE03968786800F003FB09E0E9
:1029E0003968786800F06AFB04E03968786800F0BC
:1029F000D5FB00BFFB7B18461037BD4680BD00BF2E
:102A000080B584B000AF786039600023FB737B68C9
:102A100093F81231032B1BD13B689B88DBB2012B4F
:102A200011D87B68D3F8E4359B6839687868984793
:102A30003B68DB88002B10D1FB7B002B0DD1786825
:102A400001F07EFE09E03968786800F0A7FB04E039
:102A50003968786800F0A2FB00E000BFFB7B1846F5
:102A60001037BD4680BD00BF80B584B000AF786030
:102A700039600023FB733B689B88BB733B685B78C2
:102A8000012B39D0032B02D0002B6CD0BDE07B682A
:102A900093F81231022B02D0032B0CD025E0BB7B24
:102AA000002B27D0BB7B802B24D0BB7B19467868BA
:102AB00001F044FD1EE03B685B88002B0AD1BB7B24
:102AC000002B07D0BB7B802B04D0BB7B19467868DA
:102AD00001F034FD7B68D3F8E4359B683968786889
:102AE0009847786801F02CFE05E03968786800F0B6
:102AF00055FB00E000BF88E07B6893F81231022BA1
:102B000002D0032B0CD025E0BB7B002B27D0BB7B56
:102B1000802B24D0BB7B1946786801F00FFD1EE0A6
:102B20003B685B88002B1CD1BB7B002B0ED0BB7B92
:102B3000802B0BD0BB7B1946786801F03DFD7B688C
:102B4000D3F8E4359B68396878689847786801F06D
:102B5000F7FD06E03968786800F020FB02E000BF6E
:102B600053E000BF51E07B6893F81231022B02D092
:102B7000032B0CD042E0BB7B002B44D0BB7B802BD3
:102B800041D0BB7B1946786801F0D8FC3BE097F94F
:102B90000E30002B15DABB7B03F07F0279681346F9
:102BA0009B001344DB000B4403F58F731B78002B51
:102BB00003D0184B01221A601AE0164B00221A604B
:102BC00016E097F90E30002B12DBBA7B79681346BA
:102BD0009B001344DB000B4403F276331B78002B7D
:102BE00003D00C4B01221A6002E00A4B00221A604B
:102BF00002220849786801F03BFD05E039687868F1
:102C000000F0CCFA00E000BF00BFFB7B1846103795
:102C1000BD4680BD3C01002080B584B000AF786027
:102C200039603B685B881B0A9BB2013B062B00F2B4
:102C3000A98001A252F823F0552C0008852C000829
:102C4000AD2C0008852D0008852D0008712D000889
:102C50007B2D00087B68D3F8EC351B687A68927886
:102C600007F10A0110469847F8603B68DB88402B63
:102C700005D07B6893F81231012B40F0888008233F
:102C80007B8184E07B68D3F8E4359B6A7A6892782C
:102C900007F10A0110469847F860FB6801330222E9
:102CA0001A707B68FA68C3F8F02571E03B685B88AE
:102CB000DBB2052B56D801A252F823F0D52C000820
:102CC000ED2C0008052D00081D2D0008352D0008ED
:102CD0004D2D00087B68D3F8EC355B687A689278F4
:102CE00007F10A0110469847F86040E07B68D3F886
:102CF000EC359B687A68927807F10A01104698478C
:102D0000F86034E07B68D3F8EC35DB687A68927859
:102D100007F10A0110469847F86028E07B68D3F86D
:102D2000EC351B697A68927807F10A0110469847DA
:102D3000F8601CE07B68D3F8EC355B697A689278C0
:102D400007F10A0110469847F86010E07B68D3F855
:102D5000EC359B697A68927807F10A01104698472A
:102D6000F86004E03968786800F018FA25E00FE0B0
:102D70003968786800F012FA1FE03968786800F066
:102D80000DFA1AE03968786800F008FA15E000BF1B
:102D90007B89002B11D03B68DB88002B0DD03B6872
:102DA000DA887B89934228BF13469BB27B817B895B
:102DB0001A46F968786801F05BFC1037BD4680BDA3
:102DC00080B584B000AF786039603B689B88002B89
:102DD0002CD13B68DB88002B28D13B685B88DBB2B9
:102DE00003F07F03FB737B6893F81231032B04D14C
:102DF0003968786800F0D2F91CE07B68FA7B83F8C8
:102E00001421FB7B1946786801F014FC786801F006
:102E100097FCFB7B002B04D07B68022283F81221F5
:102E200008E07B68012283F8122103E039687868A2
:102E300000F0B4F900BF1037BD4680BD80B582B048
:102E400000AF786039603B685B88DAB2374B1A7044
:102E5000364B1B78012B04D93968786800F09EF94D
:102E60005FE07B6893F81231022B02D0032B1BD05A
:102E700052E02E4B1B78002B12D02C4B1A787B681B
:102E800083F810217B68032283F81221274B1B78DB
:102E900019467868FEF7D8FC786801F051FC40E0EC
:102EA000786801F04DFC3CE0204B1B78002B12D1E0
:102EB0007B68022283F812211C4B1A787B6883F806
:102EC00010211A4B1B7819467868FEF7D5FC7868F4
:102ED00001F036FC25E07B6893F81021134B1B783A
:102EE0009A4215D07B6893F8103119467868FEF73E
:102EF000C3FC0E4B1A787B6883F810210B4B1B78B0
:102F000019467868FEF7A0FC786801F019FC08E023
:102F1000786801F015FC04E03968786800F03EF943
:102F200000BF00BF0837BD4680BD00BF480100207C
:102F300080B582B000AF786039603B68DB88012BD8
:102F400004D03968786800F029F91BE07B6893F8B1
:102F50001231022B02D0032B06D00EE001220B49C6
:102F6000786801F085FB0DE07B6803F5887301222A
:102F70001946786801F07CFB04E03968786800F055
:102F80000DF900BF00BF0837BD4680BD40010020DD
:102F900080B582B000AF786039607B6893F81231F9
:102FA000023B012B13D80E4B01221A607B68D3F829
:102FB0001831002B05D00A4B1B6843F00203084A66
:102FC000136002220649786801F052FB04E0396878
:102FD000786800F0E3F800BF00BF0837BD4680BD49
:102FE0004401002080B584B000AF786039600023D0
:102FF000FB733B685B88012B0ED17B680122C3F811
:1030000018217B68D3F8E4359B683968786898475D
:10301000786801F095FB4BE03B685B88022B47D159
:103020003B689B88DBB2002B42D17B681B695B68E5
:10303000BB603B689B881B0A9BB2FB73FB7B013B1D
:10304000042B2BD801A252F823F000BF61300008F6
:103050006D30000879300008853000089130000894
:103060003B7A012262F306133B7217E03B7A02229D
:1030700062F306133B7211E03B7A032262F30613FC
:103080003B720BE03B7A042262F306133B7205E0CD
:103090003B7A052262F306133B7200BF064ABB6807
:1030A00013607B68012283F81621786801F048FBE1
:1030B00000BF1037BD4680BD6801002080B582B0DA
:1030C00000AF786039607B6893F81231023B012BC6
:1030D00012D83B685B88012B13D17B680022C3F8B0
:1030E00018217B68D3F8E4359B683968786898477D
:1030F000786801F025FB04E03968786800F04EF844
:1031000000E000BF00BF0837BD4680BD80B483B07B
:1031100000AF786039607B6893F8CC253B681A7003
:103120007B6893F8CD253B685A707B6893F8CE3561
:103130009AB27B6893F8CF359BB21B029BB21344C3
:103140009AB23B685A807B6893F8D0359AB27B6814
:1031500093F8D1359BB21B029BB213449AB23B68E1
:103160009A807B6893F8D2359AB27B6893F8D3350E
:103170009BB21B029BB213449AB23B68DA803B6855
:10318000DB881A467B68C3F840217B68012283F8FC
:10319000112100BF0C37BD4680BC704780B582B09E
:1031A00000AF786039608021786801F0C7F90021AC
:1031B000786801F0C3F97868FEF7AAF800BF08370D
:1031C000BD4680BD80B586B000AFF860B9607A605A
:1031D0000023FB75FB68002B33D0F86800F036F84D
:1031E000034601339BB25B009AB27B681A80FB7D79
:1031F0005A1CFA751A46BB6813447A681288D2B210
:103200001A70FB7D5A1CFA751A46BB6813440322D8
:103210001A7012E0FB7D5A1CFA751A46BB681A44F4
:10322000FB68591CF9601B781370FB7D5A1CFA75FA
:103230001A46BB68134400221A70FB681B78002BE7
:10324000E8D100BF1837BD4680BD00BF80B485B04F
:1032500000AF78600023FB7305E0FB7B0133FB7359
:103260007B6801337B607B681B78002BF5D1FB7B8F
:1032700018461437BD4680BC704700BF80B586B085
:1032800000AF786000237B617868FDF783FA03461E
:10329000002B00F09C807868FDF78EFA03463B61B6
:1032A0003B69002B01D1002392E0BB7C03F00803B3
:1032B000DBB2002B06D0786800F0FAF902467B6991
:1032C00013437B61BB7C03F00403DBB2002B06D00D
:1032D000786800F01FF902467B6913437B613B7CF1
:1032E00003F00203DBB2002B09D00023FB603B7B21
:1032F00043F002033B737B68DB68FA685A61FB7C2E
:1033000023F07F03DBB2002B06D0786800F064F86E
:1033100002467B6913437B617B7C03F00803DBB2CD
:10332000002B06D0786800F097F802467B691343BB
:103330007B613B7C03F00803DBB2002B06D078688E
:1033400000F05EFA02467B6913437B613B7C03F02D
:103350001003DBB2002B06D0786800F06BFA02464F
:103360007B6913437B617B7C03F01003DBB2002B92
:1033700006D0786800F052FB02467B6913437B61FC
:103380007B7C03F02003DBB2002B06D0786800F0D2
:10339000D5FB02467B6913437B61BB7C03F01003C2
:1033A000DBB2002B06D0786800F004FC02467B6993
:1033B00013437B61BB7C03F02003DBB2002B06D000
:1033C000786800F011FC02467B6913437B617B69DE
:1033D00018461837BD4680BD80B586B000AF78600E
:1033E0007B689B7A002B11D07B6803F586731B6882
:1033F000FB603B7B6FF341033B733B7B6FF300034D
:103400003B737B68D3F80C31FA681A6000233B6188
:103410003B7C43F001033B747B681B697A6812694B
:1034200051683A69D2430A405A600A4B1B689B694B
:103430007868984700237B61FB7D43F08003FB7530
:103440007B68DB687A695A61012318461837BD46E4
:1034500080BD00BF4C00002080B586B000AF786012
:103460000023FB727B6893F81231FB72274B1B68B9
:103470005B69786898477B681B699B68FB600023E1
:103480007B617B7D43F008037B757B68DB687A6931
:103490005A617B689B7A002B32D03B7B03F001039F
:1034A000DBB2002B2CD07B6893F81531012B27D190
:1034B000FB7ADBB2032B23D100233B613B7C43F03F
:1034C00001033B747B68D3F80C317A68D2F80C2185
:1034D00011683A690A431A603B7C43F002033B746B
:1034E0007B68D3F80C317A68D2F80C2111683A69FC
:1034F0000A431A60064A064B1B6943F00603136130
:10350000012318461837BD4680BD00BF4C0000207F
:1035100000ED00E080B586B000AF786000233B612D
:103520000023BB607868FDF7DDFE7861B4E07B695D
:1035300003F00103002B00F0A9803B69DBB21946C0
:10354000786800F06BFB0346BB603B7A03F0010335
:10355000DBB2002B32D001223B6902FA03F3FB609D
:103560007B681B697A681269516BFA68D2430A401A
:103570005A630023BB603B7A43F001033B727A68D5
:103580003B6904339B0013449B68BA689A60474BBD
:103590001B685B683A69D2B21146786898477B68C5
:1035A000DB78012B0AD13B69002B07D17B6893F8AC
:1035B0001131042B02D17868FDF7AAFE3B7A03F0A3
:1035C0000803DBB2002B0DD00023BB603B7A43F035
:1035D00008033B727A683B6904339B0013449B6881
:1035E000BA689A603B7A03F01003DBB2002B0DD06F
:1035F0000023BB603B7A43F010033B727A683B695F
:1036000004339B0013449B68BA689A603B7A03F0CA
:103610004003DBB2002B0DD00023BB603B7A43F0AC
:1036200040033B727A683B6904339B0013449B68F8
:10363000BA689A603B7A03F00203DBB2002B0DD02C
:103640000023BB603B7A43F002033B727A683B691C
:1036500004339B0013449B68BA689A603B7A23F05A
:103660007F03DBB2002B11D03969786800F064F970
:103670000023BB603B7A43F080033B727A683B696E
:1036800004339B0013449B68BA689A603B6901331A
:103690003B617B695B087B617B69002B7FF447AFF3
:1036A000012318461837BD4680BD00BF4C000020DE
:1036B00080B586B000AF786000233B610023FB60DB
:1036C0007868FDF7DFFD78618FE07B6903F0010327
:1036D000002B00F084803B69DBB219467868FDF767
:1036E000E7FD0346FB603B7B03F00103DBB2002BED
:1036F00048D00023FB603B7B43F001033B737A68B7
:103700003B6914339B0013445B68FA689A607B68DA
:10371000DB78012B1FD17A683B6914339B0013447B
:103720005B681B69BB6079683A6913469B00134468
:10373000DB000B4403F55F731B68BA68C2F3120227
:10374000991A78683A6913469B001344DB000344D6
:1037500003F563731960294B1B681B683A69D2B281
:103760001146786898477B68DB78012B0AD13B6962
:10377000002B07D17B6893F81131052B02D17868B3
:10378000FDF7C6FD3B7B03F00203DBB2002B0DD03F
:103790000023FB603B7B43F002033B737A683B6989
:1037A00014339B0013445B68FA689A603B7B03F018
:1037B0000803DBB2002B12D0104B1B689B687868A3
:1037C00098470023FB603B7B43F008033B737A6818
:1037D0003B6914339B0013445B68FA689A603B6949
:1037E00001333B617B695B087B617B69002B7FF464
:1037F0006CAF012318461837BD4680BD4C00002031
:1038000080B584B000AF7860094B1B68DB687868CE
:1038100098470023FB603B7B43F008033B737B68C6
:10382000DB68FA685A61012318461037BD4680BD2F
:103830004C00002080B586B000AF786000233B616B
:103840003B7C43F010033B747B68DB687A68D2688A
:1038500091693A69D2430A409A617B68DB681B6AC6
:10386000FB603B7BC3F30303DBB21A4613469B00AA
:103870001344DB0003F55C737A68134404337B6103
:10388000BB7BC3F34303DBB2013B052B44D801A24E
:1038900052F823F019390008AD380008193900082A
:1038A0001939000819390008F5380008BA8947F6AF
:1038B000F07313409BB2002B30D07B69D968BB8971
:1038C000C3F30A139BB21A467868FCF701FD7B69C3
:1038D000DB68BA89C2F30A1292B21A447B69DA60D1
:1038E0007B699B69BA89C2F30A1292B21A447B6956
:1038F0009A6113E07B6803F2CC530822194678687A
:10390000FCF7E6FC7B699B69BA89C2F30A1292B2A2
:103910001A447B699A6102E000BF00E000BF7B6847
:10392000DB687A68D26891693A690A439A6101232F
:1039300018461837BD4680BD80B586B000AF7860A8
:10394000396000237B610023BB603A6813469B000B
:103950001344DB0003F58C737A6813440433FB6073
:10396000FB685A69FB689B69D31A7B61FB689A689C
:103970007B699A4202D2FB689B687B617B69033357
:103980009B083B617A683B6804339B0013449B6847
:103990009B69BB602EE0FB685A69FB689B69D31A80
:1039A0007B61FB689A687B699A4202D2FB689B68DC
:1039B0007B617B6903339B083B61FB68D9683B688B
:1039C000DAB27B699BB27868FCF748FCFB68DA687E
:1039D0007B691A44FB68DA60FB689A697B691A4460
:1039E000FB689A617A683B6804339B0013449B68C8
:1039F0009B69BB603B891A463B699A4209D9FB68BF
:103A00009A69FB685B699A4203D2FB685B69002B89
:103A1000C1D1012318461837BD4680BD80B58AB094
:103A200000AF786000233B6100233B620023FB6111
:103A30000023BB6100237B610023FB603B7C43F0E0
:103A400001033B747B681B697A68126951683A69A3
:103A5000D2430A405A6000217868FCF7F3FD002346
:103A60007B6212E07A687B6A04339B0013449B6894
:103A7000FF229A607A687B6A14339B0013445B6868
:103A8000FF229A607B6A01337B627B685B781A460F
:103A90007B6A9A42E6D87B681B694FF0FF329A61D5
:103AA00001233B8401237B847B681B693A6ADA61CA
:103AB0003B7F43F008033B773B7F43F001033B77B9
:103AC0003B7F43F002033B777B681B69FA695A61CD
:103AD0003B7E43F001033B763B7E43F008033B769D
:103AE0003B7E43F002033B767B681B69BA691A612F
:103AF0007B681B691B687B61BB8A6FF30A13BB82FF
:103B00007B681B697A691A607868FDF701FC0023FD
:103B1000FB607B7B43F010037B737B68DB68FA6898
:103B20005A61054B1B681B69786898470123184642
:103B30002837BD4680BD00BF4C00002080B584B052
:103B400000AF78607868FDF70BF87B68DB68DB68AE
:103B5000BB607868FCF7E0FF0346032B0CD17B6861
:103B600000229A707B684FF400729A807B7A092257
:103B700062F385037B720AE07B6801229A707B689E
:103B800040229A807B7A052262F385037B727B68F0
:103B9000DB68BA68DA600023FB607B7B43F02003BC
:103BA0007B737B68DB68FA685A610123184610371B
:103BB000BD4680BD80B584B000AF78600023FB6057
:103BC000084B1B68DB6978689847BB7B43F01003A0
:103BD000BB737B68DB68FA685A61012318461037AB
:103BE000BD4680BD4C00002080B584B000AF786039
:103BF0000023FB60084B1B681B6A78689847BB7BF7
:103C000043F02003BB737B68DB68FA685A610123C9
:103C100018461037BD4680BD4C00002080B487B0E8
:103C200000AF78600B46FB707B681B691B697B618A
:103C30007B681B695B6B3B61FB783A6922FA03F393
:103C4000DB01DBB27A6913437B61FB787A6804336A
:103C50009B0013449B689A687B691340FB60FB6878
:103C600018461C37BD4680BC704700BF80B584B085
:103C700000AF78600B46FB700223402281217868F8
:103C800000F04AFB022340220121786800F044FB47
:103C9000032308228221786800F03EFB0B4BFB6077
:103CA000FB68043302221A70FB68053300221A7085
:103CB000074B1B6898474023064A0121786800F0AB
:103CC000BFFB002318461037BD4680BD6C000020A6
:103CD000980000207409002080B582B000AF7860A1
:103CE0000B46FB708121786800F06EFB012178683B
:103CF00000F06AFB8221786800F066FB034B5B688A
:103D00009847002318460837BD4680BD980000201C
:103D100080B584B000AF786039603A23FB813F4BB7
:103D2000BB603B681B7803F06003002B3DD0202B69
:103D300035D13B68DB88002B27D03B681B785BB212
:103D4000002B10DA364B9B683A68527810463A6876
:103D5000D288344998473B68DB881A4631497868ED
:103D600000F086FC19E03B685B781A462E4B1A601F
:103D70003B68DB881A462D4B1A603B68DB881A4685
:103D80002849786800F0A8FC07E0254B9B683A6852
:103D90005278104600220021984700233AE0396803
:103DA0007868FFF7FBF9022334E03B685B780A2B65
:103DB00018D00B2B1CD0062B2BD13B685B881B0A21
:103DC0009BB2212B07D11A4BBB603B68DB883A2B97
:103DD00028BF3A23FB81FB891A46B968786800F04E
:103DE00047FC16E001221349786800F041FC10E01E
:103DF0003B685B88DBB2002B06D13B685B88DBB29B
:103E00001A460C4B1A6003E039687868FFF7C6F968
:103E100000BF002318461037BD4680BDB500002006
:103E200098000020B4090020F0000020600100206C
:103E3000BE0000204C01002080B582B000AF786049
:103E4000094B1B68FF2B0AD0084B9B68064A106879
:103E5000074A126807499847034BFF221A6000235C
:103E600018460837BD4680BDF000002098000020AD
:103E700060010020B409002080B584B000AF7860F4
:103E80000B46FB701E4B1B78012B33D11D4B1B685F
:103E9000002B03D11A4B00221A702BE0194B1B6820
:103EA000402B0FD9184B1B68FB814023BB81164B5D
:103EB0001B684033144A1360124B1B68403B114A85
:103EC00013600FE0104B1B68FB810E4B1B68BB811E
:103ED0000D4B1A680B4B1B6813440B4A1360094BBC
:103EE00000221A60FB89094A1A44BB89812178683B
:103EF00000F0E8FA002318461037BD4680BD00BF29
:103F00005C0100205801002054010020BC09002061
:103F100080B584B000AF78600B46FB70FA787968A2
:103F200013469B001344DB000B4403F563731B68CB
:103F3000FB81084B1B69FA891146074898474023C3
:103F4000054A0121786800F07BFA002318461037F3
:103F5000BD4680BD980000207409002080B582B065
:103F600000AF7860084B1B685A1C07490A60052B94
:103F700005D1054B00221A60786800F007F800238D
:103F800018460837BD4680BD6401002080B584B066
:103F900000AF78602D4B1B78012B54D02C4B1B6845
:103FA000B3F5006F02D12A4B00221A60284B1A6821
:103FB000284B1B689A4203D1244B00221A7042E01E
:103FC000234B1A68234B1B689A4206D9204B1B6867
:103FD000C3F50063204A136006E01E4B1A681C4BB1
:103FE0001B68D31A1C4A13601B4B1B68402B0FD94C
:103FF000174B1B68FB814023BB81154B1B6840336B
:10400000134A1360144B1B68403B134A13600FE0C4
:104010000F4B1B68FB81104B1B68BB810C4B1A6854
:104020000D4B1B6813440A4A13600B4B00221A60A5
:10403000064B01221A70FB89084A1A44BB89812168
:10404000786800F03FFA1037BD4680BD5C01002063
:10405000540100205001002058010020BC0900201C
:1040600080B483B000AF03463960FB713B684322E4
:104070001A80034B18460C37BD4680BC704700BF02
:10408000AC00002080B582B000AF01210820FDF710
:1040900085FE4FF470433B6001233B710023BB71ED
:1040A00002237B710023FB713B4619460548FDF74F
:1040B000F9FF00210348FEF783F800BF0837BD462B
:1040C00080BD00BF000C024080B582B000AF01216E
:1040D0000120FDF763FE01233B6000233B710023B9
:1040E000BB710223FB7102237B713B4619460348D7
:1040F000FDF7D8FF00BF0837BD4680BD0000024075
:1041000080B500AFFFF7E0FFFFF7BCFF00BF80BD49
:1041100080B483B000AF7860034A7B68536100BF0E
:104120000C37BD4680BC7047003C014080B483B072
:1041300000AF7860054A7B6843F0BF6343F4003307
:10414000D36000BF0C37BD4680BC704700ED00E077
:1041500080B485B000AF78600023FB730023BB738D
:104160000F237B737B68DB78002B38D0264BDB6812
:10417000DB4303F4E0631B0AFB73FB7BC3F1040323
:10418000BB737A7BFB7B42FA03F37B737B685B78C0
:104190001A46BB7B02FA03F3FB737B689A787B7B3E
:1041A0001340DAB2FB7B1343FB73FB7B1B01FB73F6
:1041B000164A7B681B781344FA7B83F80023134A62
:1041C0007B681B785B09DBB218467B681B7803F0C1
:1041D0001F03012101FA03F342F820300FE00B49DD
:1041E0007B681B785B09DBB218467B681B7803F0A1
:1041F0001F0301229A4000F1200341F8232000BF51
:104200001437BD4680BC704700ED00E000E100E0DF
:1042100080B584B000AF78600B46FB70FB78194620
:104220007868FCF781F87B68012283F812217B68AB
:10423000002283F814210023FB6024E0FA6813466F
:104240009B001344DB0003F58C737A68134404333A
:10425000BB60BB6801225A70FB68DAB2BB681A7097
:10426000FB689AB2BB68DA80BB680022DA70BB6870
:1042700040229A60BB680022DA60BB6800225A6163
:10428000FB680133FB607B685B781A46FB689A42E7
:10429000D4D80023FB6024E0FA6813469B00134443
:1042A000DB0003F55C737A6813440433BB60BB68BE
:1042B00000225A70FB68DAB2BB681A70FB689AB2C7
:1042C000BB68DA80BB680022DA70BB6840229A6063
:1042D000BB680022DA60BB6800225A61FB680133C8
:1042E000FB607B685B781A46FB689A42D4D8786892
:1042F000FCF78CF97868FCF7D1F800217868FCF7B6
:104300000BFA7868FCF78AFA7868FCF765F900BF61
:104310001037BD4680BD00BF80B584B000AF786067
:10432000084611461A460346FB700B463B8013466F
:10433000BB7097F90330002B0DDAFB7803F07F0296
:1043400013469B001344DB0003F58C737A68134417
:104350000433FB600CE0FB7803F07F0213469B0004
:104360001344DB0003F55C737A6813440433FB6089
:10437000FB7803F07F03DAB2FB681A7097F9033019
:10438000DBB2DB09DBB21A46FB685A703A88FB687D
:104390009A60FB68BA78DA70FB685B78002B04D00F
:1043A000FB681B789AB2FB68DA80BB78022B02D1DB
:1043B000FB6800221A71F9687868FCF70BFC00238F
:1043C00018461037BD4680BD80B584B000AF786018
:1043D0000B46FB7097F90330002B0DDAFB7803F0E6
:1043E0007F0213469B001344DB0003F58C737A684D
:1043F00013440433FB600CE0FB7803F07F021346A8
:104400009B001344DB0003F55C737A6813440433A8
:10441000FB60FB7803F07F03DAB2FB681A7097F950
:104420000330DBB2DB09DBB21A46FB685A70F9686D
:104430007868FCF73DFC002318461037BD4680BD68
:1044400080B586B000AFF8607A601A460B46FB7202
:1044500013463B81FB7A03F07F0213469B00134413
:10446000DB0003F55C73FA68134404337B617B69FA
:104470007A68DA603A897B695A617B6900229A61BD
:104480007B6900225A70FB7A03F07F03DAB27B6902
:104490001A70FB68DB78012B02D17A687B691A619C
:1044A0007B691B78002B04D17969F868FCF784FDDF
:1044B00003E07969F868FCF73FFC002318461837D9
:1044C000BD4680BD80B586B000AFF8607A603B60C5
:1044D0000B46FB72FB7A03F07F0213469B001344EA
:1044E000DB0003F58C73FA68134404337B617B694A
:1044F00001225A70FB7A03F07F03DAB27B691A70EB
:104500007B697A68DA607A687B691A617B69002264
:104510009A617B693A685A617B691B78002B04D1E8
:104520007969F868FCF748FD03E07969F868FCF7F9
:1045300003FC002318461837BD4680BD80B584B003
:1045400000AF78600B46FB7097F90330002B0DDA53
:10455000FB7803F07F0213469B001344DB0003F556
:104560008C737A6813440433FB600AE0FA781346CC
:104570009B001344DB0003F55C737A681344043337
:10458000FB60FB6801229A70FB7803F07F03DAB2CC
:10459000FB681A7097F90330DBB2DB09DBB21A460D
:1045A000FB685A70F9687868FCF7F0FD002318463C
:1045B0001037BD4680BD00BF80B584B000AF7860C5
:1045C0000B46FB7097F90330002B0DDAFB7803F0F4
:1045D0007F0213469B001344DB0003F58C737A685B
:1045E00013440433FB600AE0FA7813469B0013443B
:1045F000DB0003F55C737A6813440433FB60FB68EB
:1046000000229A70FB7803F07F03DAB2FB681A701D
:1046100097F90330DBB2DB09DBB21A46FB685A704C
:10462000F9687868FCF7F4FD002318461037BD469A
:1046300080BD00BF80B485B000AF78600B46FB70D2
:104640000023FB60FB7803F07F03DAB2BB8962F3DF
:104650000A13BB817B681B697A6812691168FA6862
:104660000A431A6000BF1437BD4680BC704700BFC4
:1046700080B586B000AFF860B9601346FB800023B8
:10468000FB75FA88FB68C3F83C21FA88FB68C3F81D
:104690003821FB68022283F81121FB88BA680021C7
:1046A000F868FFF70FFFFB7D18461837BD4680BD41
:1046B00080B586B000AFF860B9601346FB80002378
:1046C000FB75FB88BA680021F868FFF7FBFEFB7DED
:1046D00018461837BD4680BD80B586B000AFF8607B
:1046E000B9601346FB800023FB75FA88FB68C3F8AA
:1046F0009423FA88FB68C3F89023FB68032283F8AD
:104700001121FB88BA680021F868FFF799FEFB7D4C
:1047100018461837BD4680BD80B586B000AFF8603A
:10472000B9601346FB800023FB75FB88BA68002143
:10473000F868FFF785FEFB7D18461837BD4680BD3B
:1047400080B584B000AF78600023FB737B680422DF
:1047500083F811210023002200217868FFF7B2FEC0
:104760007868FCF7D5FDFB7B18461037BD4680BD49
:1047700080B584B000AF78600023FB737B680522AE
:1047800083F811210023002200217868FFF758FEEA
:104790007868FCF7BDFDFB7B18461037BD4680BD31
:1047A0000F000000440000005F0000003000000027
:1047B000240000004D000000590000001A00000015
:1047C00000000000010000000200000003000000E3
:1047D00004000000050000000600000007000000C3
:1047E0000800000009000000613A25782020763A90
:1047F00025780A000A76657269667920666C6173AD
:10480000680A0000F0FFFFFFF1FFFFFFF2FFFFFF6C
:10481000F3FFFFFFF4FFFFFFF5FFFFFFF6FFFFFFD2
:10482000F7FFFFFF0A66756E6374696F6E33320AB5
:1048300000000000616464723A2578202076616C83
:104840003A25780A000000000A66756E6374696F85
:104850006E31360A000000000A66756E6374696F77
:104860006E380A0006000000050000000600000087
:104870000400000007000000020000000600000025
:104880000400000072656164696E670A0000000040
:10489000F0FFFFFFF1FFFFFFF2FFFFFFF3FFFFFF5E
:1048A000F4FFFFFFF5FFFFFFF6FFFFFFF7FFFFFF3E
:1048B000F0FFF1FFF2FFF3FFF4FFF5FFF6FFF7FF64
:1048C000F0F1F2F3F4F5F6F753544D333220566914
:1048D000727475616C20436F6D506F727420696ED5
:1048E000204653204D6F64650000000053544D690D
:1048F00063726F656C656374726F6E6963730000D9
:10490000303030303030303030353043000000004F
:1049100056435020436F6E6669670000564350202F
:0A492000496E7465726661636500FC
:10492A00050000008113000899130008B913000854
:10493A00D1130008E913000801140008191400082B
:10494A006D15000839160008011500081D18000821
:10495A0079170008ED170008BD170008A11800080C
:10496A00C11800080000000000000000200000201C
:10497A00C51E0008E91E0008351F00080D1F0008A3
:10498A005D1F0008851F0008AD1F00081201000204
:10499A0000000040830440570002010203010000A6
:1049AA000A06000200000040010000000403090496
:1049BA0000C201000000080191240008A124000897
:1049CA00B12400080D2600086926000809024300E0
:1049DA00020100C03209040000010202010005249C
:1049EA000010010524010001042402020524060026
:1049FA0001070582030800FF09040100020A0000FA
:104A0A00000705010240000007058102400000007E
:104A1A00FF0000006D3C0008D93C0008113D000869
:104A2A0000000000393E0008793E0008113F0008E6
:104A3A005D3F00080000000000000000614000081F
:0400000508000000EF
:00000001FF
